S00B0000414F532E7372656336
S11300000C9434000C9451000C9451000C94510045
S11300100C9451000C9451000C9451000C94510018
S11300200C9451000C9451000C9451000C94510008
S11300300C9451000C9451000C9451000C945100F8
S11300400C9451000C9451000C9451000C945100E8
S11300500C9451000C9451000C9451000C945100D8
S11300600C9451000C94510011241FBECFEFD8E022
S1130070DEBFCDBF11E0A0E0B1E0EAEFFBE002C0DB
S113008005900D92A834B107D9F728E0A8E4B1E0AF
S113009001C01D92A537B207E1F70E94A5010C9497
S11300A0FB050C940000DF92EF92FF920F931F93D5
S11300B0CF93DF93CDB7DEB72D970FB6F894DEBF9D
S11300C00FBECDBF7C018B0148E050E0CE0101960C
S11300D00E94AC05B801685F7F4F43E050E0CE0159
S11300E009960E94AC05C8010B960E94BC05D82E47
S11300F0B801645F7F4F42E050E0CE010C960E944D
S1130100AC0588E0FE013196D70101900D928A95E5
S1130110E1F789859A85AB85F70180879187A28766
S11301208C859D85D38695878487025F1F4F1787AB
S11301300687C7012D960FB6F894DEBF0FBECDBF5C
S1130140DF91CF911F910F91FF90EF90DF90089571
S11301500F931F93CF93DF9300D000D0CDB7DEB7BA
S11301600E941302182F893058F4873008F06AC0AF
S1130170833018F48130C0F0DFC08530A0F5DAC0D8
S1130180803109F4AFC038F4893009F484C08A306E
S113019009F490C0CFC08E3F09F477C008F0CCC0FA
S11301A08D3F09F4B1C0C6C0BE016D5F7F4FCE0163
S11301B004960E942C026C818B810E94B602182F37
S11301C0BE016F5F7F4FCE0102960E942C0289818F
S11301D0833011F00E94AB02EA81EF73F0E0E85B38
S11301E0FE4F1083A9C0BE016D5F7F4FCE01049600
S11301F00E942C026C818B810E94B602082FBE01E2
S11302006F5F7F4FCE0102960E942C02898183305A
S113021011F00E94AB02153019F0163051F08CC069
S1130220EA81EF73F0E0E85BFE4F8081080F008302
S113023083C0EA81EF73F0E0E85BFE4F8081801BAE
S113024080837AC0BE016F5F7F4FCE0102960E9409
S11302502C028981833011F00E94AB02173019F00F
S1130260183051F069C0EA81EF73F0E0E85BFE4FAB
S113027080818F5F808360C0EA81EF73F0E0E85B88
S1130280FE4F80818150808357C0E8E4F1E085818E
S11302908068858351C0BE016F5F7F4FCE01029697
S11302A00E942C026A8189810E94B60290E00E9419
S11302B0E40242C0BE016F5F7F4FCE0102960E94EE
S11302C02C026A8189810E94B6021F928F938FE06B
S11302D091E09F938F930E94CE020F900F900F9006
S11302E00F902AC0BE016F5F7F4FCE0102960E941D
S11302F02C026A8189810E94B602E8E4F1E09181CE
S11303009150890F818318C0BE016F5F7F4FCE016A
S113031002960E942C026A8189810E94B602882377
S113032059F0E9EFF0E03197F1F700C00000815097
S1130330C1F702C00E94AB020F900F900F900F9074
S1130340DF91CF911F910F910895CF93DF93CDB794
S1130350DEB760970FB6F894DEBF0FBECDBF0E9424
S113036093020E94A40282E191E00E94EB0260E009
S113037070E08E010F5F1F4FC8010E9453008E85ED
S11303808F938D858F93CE0109969F938F931F939F
S11303900F9382E291E09F938F930E94CE024D854A
S11303A05E858DB79EB708960FB6F8949EBF0FBEB4
S11303B08DBFEDB7FEB7E41BF50B0FB6F894FEBF87
S11303C00FBEEDBF0DB71EB70F5F1F4F6F85788946
S11303D0C8010E94AC056D857E85C8010E94440257
S11303E0E8E4F1E0108211828F010E94A8000E94CB
S11303F02102F80185818823C4F78FE391E00E94EC
S1130400EB02FFCFEFE6F1E08FE698E011928E1752
S11304109F07E1F7E8E6F1E08FE691E01192E81733
S1130420F907E1F70895A8E4B1E0EC91F0E0119642
S11304308C91FE2FEE27E159FE4FE80FF11D8081CC
S11304400895E8E4F1E081818F5F8183811103C025
S113045080818F5F808308950F931F93CF93DF93E1
S11304608C01EB010E9421020E941302F801808397
S1130470209729F082958695869583708883DF91ED
S1130480CF911F910F910895CF93AC01CB0181506F
S11304909F4F9C0112F421503F4FC32FE8E6F1E037
S11304A0AFE6B1E091E0931B20E08FEF3191311181
S11304B004C02F5FC21304C002C020E001C0892F12
S11304C09F5FEA17FB0791F78F3F21F01616170677
S11304D084F01FC080910001813019F0823029F02E
S11304E017C00E94AB028FEF14C00E9402028FEF6C
S11304F010C0FA01A82FB0E0BA2FAA27A159BE4F05
S1130500640F751F91919D93E617F707D9F701C002
S11305108FEFCF910895E0ECF0E0908195FFFDCF4F
S11305208093C60008951092C50087E68093C400A6
S1130530E0ECF0E080818D7F808386E08093C200D0
S113054088E18093C100089581E091E0909372085E
S113055080937108089598E088E10FB6F894A895FF
S1130560809360000FBE90936000FFCF813039F01C
S113057018F0833049F010C0862F8F7308950E94BD
S113058021020E9413020895862F8F73E82FF0E052
S1130590E85BFE4F808108950E94AB02A0E0B0E0CA
S11305A0E4EDF2E00C94D405AE014B5F5F4FFA0129
S11305B061917191AF0180917108909172080E94CC
S11305C01B03E2E00C94F0056091710870917208CD
S11305D00E94120508950F931F93CF93DF93E09128
S11305E07108F0917208238121FF1BC08C01D0E0B7
S11305F0C0E0F80181918F016091710870917208D7
S1130600DB011896ED91FC911997882331F0099537
S1130610892B79F3DFEFCFEFECCF8AE00995892BB3
S113062019F08FEF9FEF02C08D2F9C2FDF91CF9198
S11306301F910F910895ABE0B0E0E1E2F3E00C9478
S1130640C4056C017B018A01FC0117821682838137
S113065081FFCCC1CE0101963C01F6019381F701E3
S113066093FD859193FF81917F01882309F4BAC199
S1130670853239F493FD859193FF81917F01853211
S113068029F4B60190E00E941205E7CF912C212CA9
S1130690312CFFE1F315D8F08B3279F038F4803245
S11306A079F08332A1F4232D20611DC08D3261F0D5
S11306B0803369F4232D216016C0832D8260382E87
S11306C0E32DE4603E2E2AC0F32DF8601DC037FCF4
S11306D02DC020ED280F2A3040F08E32B9F436FCBC
S11306E081C1232D2064322E19C036FE06C08AE053
S11306F0989E200D1124922E11C0EAE02E9E200D0A
S11307001124222EF32DF0623F2E08C08C3621F4E2
S1130710832D8068382E02C0883641F4F70193FD9A
S1130720859193FF81917F018111B3CF982F9F7D94
S11307309554933028F40C5F1F4F9FE399830DC0A9
S1130740833631F0833771F0833509F059C021C005
S1130750F801808189830E5F1F4F88248394912C34
S1130760530113C02801F2E04F0E511CF801A08080
S1130770B18036FE03C0692D70E002C06FEF7FEFD9
S1130780C5010E9407054C018201F32DFF773F2E1E
S113079016C0280122E0420E511CF801A080B1804D
S11307A036FE03C0692D70E002C06FEF7FEFC50114
S11307B00E94FC044C01F32DF0683F2E820133FCAF
S11307C01BC0822D90E088169906B0F4B60180E231
S11307D090E00E9412052A94F4CFF50137FC85912C
S11307E037FE81915F01B60190E00E94120521104D
S11307F02A9421E0821A91088114910471F7E8C0C7
S1130800843611F0893641F5F80137FE07C060815E
S11308107181828193810C5F1F4F08C06081718157
S1130820072E000C880B990B0E5F1F4FF32DFF76DC
S11308303F2E97FF09C090958095709561957F4FE5
S11308408F4F9F4FF0683F2E2AE030E0A3010E94B3
S11308504E05882E861845C0853731F4232D2F7E0A
S1130860B22E2AE030E025C0932D997FB92E8F3621
S1130870C1F018F4883579F0B5C0803719F088379D
S113088021F0B0C0E92FE061BE2EB4FE0DC0FB2DF7
S1130890F460BF2E09C034FE0AC0292F2660B22E90
S11308A006C028E030E005C020E130E002C020E1CD
S11308B032E0F801B7FE07C06081718182819381C3
S11308C00C5F1F4F06C06081718180E090E00E5F75
S11308D01F4FA3010E944E05882E8618FB2DFF771B
S11308E03F2E36FE0DC0232D2E7FA22E891458F4E0
S11308F034FE0BC032FC09C0832D8E7EA82E05C0A9
S1130900B82CA32C03C0B82C01C0B92CA4FE0FC072
S1130910FE01E80DF11D8081803321F49A2D997E2A
S1130920A92E09C0A2FE06C0B394B39404C08A2DB4
S1130930867809F0B394A3FC11C0A0FE06C0B214DB
S113094088F4280C922C9B180EC0B21460F4B601E3
S113095080E290E00E941205B394F7CFB21418F429
S11309602B1802C0982C212CA4FE10C0B60180E3E1
S113097090E00E941205A2FE17C0A1FC03C088E704
S113098090E002C088E590E0B6010CC08A2D86781C
S113099059F0A1FE02C08BE201C080E2A7FC8DE207
S11309A0B60190E00E941205891438F4B60180E380
S11309B090E00E9412059A94F7CF8A94F301E80D0F
S11309C0F11D8081B60190E00E9412058110F5CFDF
S11309D0222009F442CEB60180E290E00E94120582
S11309E02A94F6CFF6018681978102C08FEF9FEF9C
S11309F02B96E2E10C94E005FC01059061507040F7
S1130A000110D8F7809590958E0F9F1F0895FC01D3
S1130A106150704001900110D8F7809590958E0F29
S1130A209F1F08950F931F93CF93DF93FB0123819F
S1130A3021FD03C08FEF9FEF2CC022FF16C046811B
S1130A405781248135814217530744F4A081B18131
S1130A509D012F5F3F4F318320838C932681378103
S1130A602F5F3F4F3783268314C08B01EC01FB01BA
S1130A700084F185E02D0995892BE1F6D8011696BD
S1130A808D919C911797019617969C938E93169728
S1130A90CE01DF91CF911F910F910895FA01AA27FA
S1130AA0283051F1203181F1E8946F936E7F6E5FAD
S1130AB07F4F8F4F9F4FAF4FB1E03ED0B4E03CD05B
S1130AC0670F781F891F9A1FA11D680F791F8A1F3E
S1130AD0911DA11D6A0F711D811D911DA11D20D0A5
S1130AE009F468943F912AE0269F11243019305D5F
S1130AF03193DEF6CF010895462F4770405D419350
S1130B00B3E00FD0C9F7F6CF462F4F70405D4A339C
S1130B1018F0495D31FD4052419302D0A9F7EACF64
S1130B20B4E0A6959795879577956795BA95C9F793
S1130B3000976105710508959B01AC010A2E069486
S1130B405795479537952795BA95C9F7620F731F3F
S1130B50841F951FA01D0895DC01CB01FC01F999A8
S1130B60FECF06C0F2BDE1BDF89A319600B40D92F5
S1130B7041505040B8F70895F999FECF92BD81BD18
S1130B80F89A992780B508952F923F924F925F92D9
S1130B906F927F928F929F92AF92BF92CF92DF9289
S1130BA0EF92FF920F931F93CF93DF93CDB7DEB7EE
S1130BB0CA1BDB0B0FB6F894DEBF0FBECDBF099482
S1130BC02A88398848885F846E847D848C849B84D9
S1130BD0AA84B984C884DF80EE80FD800C811B81E7
S1130BE0AA81B981CE0FD11D0FB6F894DEBF0FBE16
S10D0BF0CDBFED010895F894FFCF86
S1130BFA0100000002000000008B02000000002532
S1130C0A64000A426F6F74696E6720414F532E2E37
S1130C1A2E00526F6F7466696C65206973202573A0
S1130C2A2E25732C2025642062797465730A000AC0
S10B0C3A48616C74656400005C
S9030000FC
